:030000000203A94F
:0C03A900787FE4F6D8FD75813D0203F07A
:10043500E4FAEF6405703343F620C2F8C2F9D2FA44
:1004450043E180C2FCD2FBADF8EDC413135403FDA8
:10045500AFE2AB07EB7E007802C333CE33CED8F9DB
:100465007C002DFBEC3EAF03FE22EF6406703443A7
:10047500F640D2F8C2F9D2FA43E180C2FCD2FBAD14
:10048500F8EDC413135403FDAFE27A00AB07EB7E1E
:10049500007802C333CE33CED8F97C002DFBEC3E79
:0304A500FEAF03A4
:0104A8002231
:10074B0075DCC0753A00753B1DE53AF5D1E53BF517
:02075B00D922A1
:1005D200EF1460191460251460312403703B753ADE
:1005E20000753B0DE53AF5D2E53BF5DA22753A01A5
:1005F200753B00E53AF5D3E53BF5DB22753A00752C
:100602003B80E53AF5D5E53BF5DD22753A00753BD1
:0A06120040E53AF5D6E53BF5DE229F
:08000300E4FF1205D202074BD5
:02065E008F2CDF
:10066000C2A07F647E001206C7D2A07F967E0012D1
:1006700006C7E4F52DE52DC3952C5016D2A17F14A5
:100680007E00120733C2A17F147E00120733052DAE
:0206900080E305
:010692002245
:10070200C294C2A1C2A07F647E00120733D2A07F2E
:09071200647E00120733D2942228
:10075D00D2947F0412065E7F967E001206E7C29445
:01076D002269
:10076E00D2947F0312065E7F8C7E001206E7C2943F
:01077E002258
:10077F00D2947F0212065E7F787E001206E7C29443
:01078F002247
:10079000D2947F0912065E7F787E001206E7C2942B
:0107A0002236
:1007A100D2947F0E12065E7F787E001206E7C29415
:0107B1002225
:1007B200D2947F0712065E7F507E001206E7C29433
:0107C2002214
:1007C300D2947F0B12065E7F327E001206E7C2943C
:0107D3002203
:06058400023C0000C189E9
:100693001207027D647C007F321204A9D2A4D29097
:1006A300C2947F061204358E3C8F3DE4F509F50AAA
:1006B300C202D2A7C2937F03FE1206E71207C31238
:0406C30007D480FBDD
:1006E700EF1FAA0670011E4A60107C137D88ED1D5E
:0A06F700AA0470011C4A60E880F4B8
:0107010022D5
:10071B00E4FDFCC3ED9FEC9E500DE4FB0BBB2AFCF0
:07072B000DBD00010C80EC84
:0107320022A4
:1006C700E4FDFCC3ED9FEC9E5015E4FBFA0BBB0069
:0F06D700010AEB64644A70F50DBD00010C80E46C
:0106E60022F1
:10073300E4FDFCC3ED9FEC9E500DE4FB0BBB04FCFE
:070743000DBD00010C80EC6C
:01074A00228C
:09058A000733000000000000002E
:10051B00D2937F027E001206E7C2A77533C87534EB
:10052B00E07535C112061CE4F52EE4F52F74332566
:10053B002EF8E630E706C2907F788004C2907F3CAD
:10054B007E0012071BD2907433252EF8C000E625CF
:10055B00E0D000F67F327E0012071B052FE52FC37C
:10056B00940840C9052EE52EC3940340BDD2A77F46
:08057B00027E001206E7C293A4
:010583002255
:10061C007532AAE4F531E4F530E532C2907F507EB4
:10062C000012071BD290E53225E0F5327F967E0052
:10063C0012071B0530E530C3940840DD7532AA7FE4
:10064C00507E0012071B0531E531C3940340C7D21D
:01065C00900D
:01065D00227A
:0C000E00C2A47F0A7E001206E7D2A422E2
:10059300C104010D00C107011F00C10202090000CF
:1005A300C105C106C101021B0000010B00070E00BB
:1005B300000000000000C103011500010C0001163A
:0E05C30000C180011D00011E00C108010800DA
:03000B000202905E
:10029000C0E0C0F0C083C082C0D075D000C000C034
:1002A00001C002C003C004C005C006C00785178C8A
:1002B00085198A051CE51C7002051BC3943CE51BCF
:1002C0009400500261577F061204358E3C8F3D30FA
:1002D0000912D3E53D9433E53C94035007C209125B
:1002E00007908013200910C3E53D945AE53C940320
:1002F0004005D2091207A1751B00751C0030081BB0
:10030000E508C3940350141207C312000E0508E554
:1003100008C394034005C20875080030071BE51F99
:10032000C39403501412076E12000E051FE51FC37D
:1003300094034005C207751F0030041BE50DC394EC
:1003400003501412077F12000E050DE50DC3940330
:100350004005C204750D0030022C050AE50A700242
:100360000509C39403E5099400500812075D1200C3
:100370000E8013C3E50A94B0E5099404400875099A
:1003800000750A00C2023001051207B2C201D0078F
:10039000D006D005D004D003D002D001D000D0D0F8
:0903A000D082D083D0F0D0E0320D
:03001B0002016877
:10016800C0E0C0F0C083C082C0D075D000C000C05D
:1001780001C002C003C004C005C006C00785188DB1
:10018800851A8B20910EC200051EE51E64787054F6
:10019800F51E805020003CD200E51ED39423401564
:1001A800E51ED39450500EE50C25E0F50C530CFEDB
:1001B8000516751D00E51ED394504010E50C25E08A
:1001C800F50C430C010516751D008002051D751EF2
:1001D800008011051DE51DC3943C4008751600D22A
:1001E80000751500E51664087032F516740E2515AD
:1001F800F8A60CE515700AE50EB4C805751501805A
:100208001BE515B4010AE50FB4E005751502800C6D
:10021800E515B40204D203800075150030034EC200
:1002280003E510243E601514601614601C14602A3F
:100238001460382405703612051B8031D208802DD1
:10024800D202751F00C207800AD207750900750A15
:1002580000C202750D00C2048013D204750900752E
:100268000A00C202751F00C2078002D201D007D05F
:1002780006D005D004D003D002D001D000D0D0D011
:0802880082D083D0F0D0E032F7
:0404A9008C228D23F1
:1004AD007E007C2B7D3312013BE47B0CFAF9F812B4
:1004BD0000A98F278E268D258C24C3E49FFFE49EF3
:1004CD00F5178F19AE22AF23EE3395E0FDFCE47BDB
:1004DD000BFAF9F812001EE47B0CFAF9F81200A9D8
:1004ED008F2B8E2A8D298C28C3E49FFFE49EF5184F
:1004FD008F1A75891185178C85198A85188D851A1E
:0D050D008BD2A9D28CD2ABD28ED2BBD2AF92
:01051A0022BE
:0407D4004387012234
:1003B500020693E493A3F8E493A34003F68001F2C5
:1003C50008DFF48029E493A3F85407240CC8C33349
:1003D500C4540F4420C8834004F456800146F6DF18
:1003E500E4800B0102040810204080900584E47E1F
:1003F500019360BCA3FF543F30E509541FFEE4930D
:10040500A360010ECF54C025E060A840B8E493A3D3
:10041500FAE493A3F8E493A3C8C582C8CAC583CAFE
:10042500F0A3C8C582C8CAC583CADFE9DEE780BEB6
:0105D1000029
:10001E00E88FF0A4CC8BF0A42CFCE98EF0A42CFC81
:10002E008AF0EDA42CFCEA8EF0A4CDA8F08BF0A4FF
:10003E002DCC3825F0FDE98FF0A42CCD35F0FCEB5E
:10004E008EF0A4FEA9F0EB8FF0A4CFC5F02ECD3923
:0F005E00FEE43CFCEAA42DCE35F0FDE43CFC2290
:10006D0075F008758200EF2FFFEE33FECD33CDCC4A
:10007D0033CCC58233C5829BED9AEC99E5829840CD
:10008D000CF582EE9BFEED9AFDEC99FC0FD5F0D6AA
:10009D00E4CEFBE4CDFAE4CCF9A88222B800C1B9D4
:1000AD000059BA002DEC8BF084CFCECDFCE5F0CB12
:1000BD00F97818EF2FFFEE33FEED33FDEC33FCEB4B
:1000CD0033FB10D703994004EB99FB0FD8E5E4F906
:1000DD00FA227818EF2FFFEE33FEED33FDEC33FCF3
:1000ED00C933C910D7059BE99A4007EC9BFCE99AE7
:1000FD00F90FD8E0E4C9FAE4CCFB2275F010EF2F2C
:10010D00FFEE33FEED33FDCC33CCC833C810D7072B
:10011D009BEC9AE899400AED9BFDEC9AFCE899F866
:0E012D000FD5F0DAE4CDFBE4CCFAE4C8F922F9
:10013B00EC8EF0A4CCC5F0CCCDF8EFA4CEC5F02D51
:10014B00FDE43CFCE8A42EC8C5F03DFDE43CFCEF0F
:0D015B00A4FFE5F028FEE43DFDE43CFC229D
:00000001FF
