:03000000020733C1
:0C073300787FE4F6D8FD75815D02077A3E
:1007BF00E4FAEF6405703343F620C2F8C2F9D2FAB7
:1007CF0043E180C2FCD2FBADF8EDC413135403FD1B
:1007DF00AFE2AB07EB7E007802C333CE33CED8F94E
:1007EF007C002DFBEC3EAF03FE22EF64067034431A
:1007FF00F640D2F8C2F9D2FA43E180C2FCD2FBAD87
:10080F00F8EDC413135403FDAFE27A00AB07EB7E90
:10081F00007802C333CE33CED8F97C002DFBEC3EEB
:03082F00FEAF0316
:0108320022A3
:100E230075DCC0751E00751F1DE51EF5D1E51FF5A8
:020E3300D922C2
:100B3100EF1460191460251460312403703B751E95
:100B410000751F0DE51EF5D2E51FF5DA22751E01B0
:100B5100751F00E51EF5D3E51FF5DB22751E007537
:100B61001F80E51EF5D5E51FF5DD22751E00751FF9
:0A0B710040E51EF5D6E51FF5DE2273
:08000300E4FF120B31020E2391
:03051F00015D017A
:020CB8008F1497
:100CBA00C2A07F647E00120D19D2A07F967E001218
:100CCA000D19E4F515E515C395145016D2A17F1434
:100CDA007E00120DF4C2A17F147E00120DF40515D8
:020CEA0080E3A5
:010CEC0022E5
:100DAB00C294C2A1C2A07F5E7E01120DF4D2A07FBD
:090DBB005E7E01120DF4D29422B7
:100ADC00E55D24FE602F04704BD2947F0E120CB88F
:100AEC007F1E7E00120D907F12120CB87F1E7E00AE
:100AFC00120D907F0B120CB87F327E00120D90C23B
:100B0C0094755D0222D2947F0E120CB87F197E0070
:100B1C00120D907F0C120CB87F327E00120D90C219
:050B2C0094755D01223B
:100E3500D2947F06120CB87F3C7E00120D90C294AE
:010E4500228A
:100E4600D2947F02120CB87F3C7E00120D90C294A1
:010E56002279
:100E5700D2947F1B120CB87F507E00120D90C29463
:010E67002268
:100E6800D2947F03120CB87FA07E00120D90C2941A
:010E78002257
:100E0C00D2947F16120CB87FA07E00120D90C29463
:070E1C007F147E00020D901F
:100E7900D2947F17120CB87F327E00120D90C29463
:010E89002246
:100D5700D2947F18120CB87F327E00120D907F0D4F
:0D0D6700120CB87F327E00120D90C2942253
:100E8A00D2947F13120CB87F507E00120D90C29438
:010E9A002235
:100C41007D647C007F01120833C2A5C215120DAB71
:100C5100120003C294D284D283D290C20ED287D220
:100C610009D2A7C293755206D2A2D2A3D2A6D28527
:100C71007F061207BF8E398F3AC28112000E80FBA8
:100D9000EF1FAA0670011E4A60107C137D88ED1DAE
:0A0DA000AA0470011C4A60E880F408
:010DAA002226
:100DC400E4FDFCC3ED9FEC9E500DE4FB0BBB15FC56
:070DD4000DBD00010C80ECD5
:010DDB0022F5
:100DDC00E4FDFCC3ED9FEC9E500DE4FB0BBB1AFC39
:070DEC000DBD00010C80ECBD
:010DF30022DD
:100D1900E4FDFCC3ED9FEC9E5015E4FBFA0BBB0010
:0F0D2900010AEB64644A70F50DBD00010C80E413
:010D38002298
:100DF400E4FDFCC3ED9FEC9E500DE4FB0BBB04FC37
:070E04000DBD00010C80ECA4
:010E0B0022C4
:100CED00E4FDE4FEFF0FBF00010EBE1FF8BF40F58F
:100CFD000DBD32EEE4FD30920EE4FEFF0FBF00019C
:0B0D0D000EBE46F8BF50F50DBD32EBE6
:010D180022B8
:09052200071700000000000000B2
:100B7B007516AAE4F515E4F514E516C2907F507EC0
:100B8B0000120DC4D290E51625E0F5167F967E0077
:100B9B00120DC40514E514C3940840DD7516AA7F25
:100BAB00507E00120DC40515E515C3940340C7D242
:010BBB0090A9
:010BBC002216
:100BBD007516AAE4F515E4F514E516C2907F507E7E
:100BCD0000120DC4D290E51625E0F5167F967E0035
:100BDD00120DC40514E514C3940840DD7516AA7FE3
:100BED00507E00120DC40515E515C3940340C7D200
:010BFD009067
:010BFE0022D4
:100BFF007516AAE4F515E4F514E516C2907F507E3C
:100C0F0000120DC4D290E51625E0F5167F967E00F2
:100C1F00120DC40514E514C3940840DD7516AA7FA0
:100C2F00507E00120DC40515E515C3940340C7D2BD
:010C3F009024
:010C40002291
:1008A500D293D2A6C2A77517C87518E07519C112DB
:1008B5000BBDE4F512E4F51374172512F8E630E7DD
:1008C50006C2907F788004C2907F507E00120DDCB6
:1008D500D29074172512F8C000E625E0D000F67F07
:1008E500327E00120DDC0513E513C3940840C905DB
:0E08F50012E512C3940340BDD2A7C293D2A64F
:0109030022D1
:10090400D293C2A6C2A77517C87518E07519C2128A
:100914000BBDE4F512E4F51374172512F8E630E77D
:1009240006C2907F788004C2907F507E00120DDC56
:10093400D29074172512F8C000E625E0D000F67FA7
:10094400327E00120DDC0513E513C3940840C9057B
:0E09540012E512C3940340BDD2A7D2A6C293EF
:010962002272
:10096300D293C2A6C2A77517C87518E07519C3122A
:100973000B7BE4F512E4F51374172512F8E630E760
:1009830006C2907F788004C2907F507E00120DDCF7
:10099300D29074172512F8C000E625E0D000F67F48
:1009A300327E00120DDC0513E513C3940840C9051C
:0E09B30012E512C3940340BDD2A7D2A6C29390
:0109C1002213
:1009C200D293C2A6C2A77517C87518E07519C412CA
:1009D2000BFFE4F512E4F51374172512F8E630E77D
:1009E20006C2907F788004C2907F507E00120DDC98
:1009F200D29074172512F8C000E625E0D000F67FE9
:100A0200327E00120DDC0513E513C3940840C905BC
:0E0A120012E512C3940340BDD2A7D2A6C29330
:010A200022B3
:100A2100D293C2A6C2A77517C87518E07519C51269
:100A31000BFFE4F512E4F51374172512F8E630E71D
:100A410006C2907F788004C2907F507E00120DDC38
:100A5100D29074172512F8C000E625E0D000F67F89
:100A6100327E00120DDC0513E513C3940840C9055D
:0E0A710012E512C3940340BDD2A7D2A6C293D1
:010A7F002254
:100A800020910D055BE55BB47803E4F55BC20022C1
:100A9000200038D200E55BD394234012E55BD39469
:100AA00050500BE52B25E0F52B532BFE8010E55B1A
:100AB000D394504010E52B25E0F52B432B01053E48
:100AC000E4F55A8002055AE4F55B22055AE55AC35B
:0C0AD000943C4007E4F53ED200F53622CD
:100C8100E53E64087030F53E742F2536F8A62BE555
:100C9100367009E52FB4C80475360122E536B40172
:100CA10009E530B4E00475360222E536B40204D217
:070CB100078000E4F5362284
:1005DF008E128F13C3E5139445E5129403400CD28A
:1005EF00947F1C120CB87F3202067CC3E513944033
:1005FF00E51294035016C3E5139424E512940340B7
:10060F000BD2947F0A120CB87F508061C3E513940C
:10061F0020E51294035016C3E513940FE5129403CB
:10062F00400BD2947F09120CB87F508040C3E51362
:10063F00940AE51294035016C3E51394F8E5129447
:10064F0002400BD2947F08120CB87F50801FC3E575
:10065F001394F3E5129402501CC3E51394E3E512CF
:10066F0094024011D2947F07120CB87F507E001273
:10067F000D90C29422C3E51394E0E5129402500347
:04068F00120E3522F0
:0E0E9B00C2A2D2A3120CEDD2A2D2A3C2852213
:0E0EA900D285D2A2C2A3120CEDD2A2D2A322F5
:10052B00C105C106C113C115C102C116C10CC10958
:10053B00022D0000C112C10FC11101530001540063
:10054B00C10BC18D012A00C1180140000137000108
:10055B00450002410000015100013D000255000021
:10056B00C108C10AC101012400023B00000148007F
:10057B00015200C10E013F00012600015C00012C5D
:10058B0000024F0000072F00000000000000C10711
:10059B00013600012B00013E00C180015A00015BB6
:1005AB0000014B0001490002580000C104014C003E
:1005BB0001570001290002390000C117014A00014F
:1005CB003800C114012500C10302270000C110022D
:0305DB004D0000D0
:03000B0002001ED2
:10001E00C0E0C0F0C083C082C0D075D000C000C0A8
:10002E0001C002C003C004C005C006C00785438CD2
:10003E0085468A0550E5507002054FC394D0E54FB2
:10004E00940750030201CC1208A530093E052AE59B
:10005E002AC394024035752A0420101F200D1C302F
:10006E001719E552D394064012E54CB4010D120E49
:10007E00A9755200D20DC217754A0020A506752427
:10008E0000754800201004D215D2A5754F0075508A
:10009E00007F061207BF8E398F3A300B0CE52CC34A
:1000AE0094055005120A21052C30180CE55CC394FA
:1000BE000550051209C2055C0552E552D39406405F
:1000CE0003755207E54C6003300D5F20A45C7F057D
:1000DE007E00120D9020A452301715E54AC39401EC
:1000EE00500E120D74754C01C214752500752A0040
:1000FE00300F37E553C394045030E54C702CC20BCF
:10010E00C218F524F548F537F53BF53CF541F542B7
:10011E00F555F556F53DF551C205C20FF553C21111
:10012E00F554C201F538C214F52520102930A42645
:10013E00E54CB401217F057E00120D9030A4147F92
:10014E000A7E00120D90AF3AAE391205DF754C00E3
:10015E00120D39752A00300F28E553C3940450212F
:10016E00D20520A40620A409300D06120963120E32
:10017E00680553E553C394044007755300C20FC27C
:10018E0005301128E554C394045021D20520A4064D
:10019E0020A409300D06120963120E0C0554E55405
:1001AE00C394044007755400C211C20530140FE504
:1001BE0025C394065008120904120E8A0525301024
:1001CE0019054EE54E7002054DD394B8E54D940BCE
:1001DE004008C210754D00754E0030800320870810
:1001EE00D210754D00754E003001030202FB20A5A2
:1001FE00030202FBE52414603114607024026003D4
:10020E000202C730800320871B2005180548E548E9
:10021E00C3940250030202C7754800752401120EE2
:10022E00460202C77548000202C7308003208717B6
:10023E000537E537C39402401175370075240275F2
:10024E004500120E578003753700053CE53C7002E1
:10025E00053BC394A0E53B940F405E7524007537B3
:10026E0000754800753B00753C00804D30800320C2
:10027E008712053DE53DC39402400C753D00D20F3B
:10028E00D2118003753D000542E54270020541C35F
:10029E0094A0E541940F40217524007548007537F0
:1002AE0000753B00753C00754100754200755503A5
:1002BE00755620753D00755100208116E538C394A2
:1002CE0033500F0538E53894324007D20FD21175EE
:1002DE003833C3E53994015004D2148010D3E53A73
:1002EE009400E53994024005C21475250030153E80
:1002FE002084120549E549B40A15D218C20B200410
:10030E000ED201800AC218755C00754900C2012028
:10031E008312054BE54BB40A15D20BC21820040EFE
:10032E00D201800AC20B752C00754B00C201300140
:10033E003C0559E55970020558C394A0E558940F31
:10034E00402BC201755800755900D20475240075F2
:10035E004800753700753B00753C007541007542CD
:10036E0000755503755620753D0075510030870395
:10037E00208020D3E5289488E527941340157F0329
:10038E007E00120D90308703208008D2037527005F
:10039E007528000528E52870020527C39488E527EF
:1003AE0094134008752713752889C203D007D00609
:1003BE00D005D004D003D002D001D000D0D0D0824E
:0703CE00D083D0F0D0E03233
:03001B0002069347
:10069300C0E0C0F0C083C082C0D075D000C000C02D
:1006A30001C002C003C004C005C006C00785448D55
:1006B30085478B120A80120C81300759C207E53136
:1006C300243F7051E552D39406500320A405D2175A
:1006D300755200752A00C2A5C215C20BC218752433
:1006E30000754800753700753B00753C0075410087
:1006F300754200755500755600753D00755100C271
:1007030005C20F755300C211755400C2017538003C
:10071300C214752500D007D006D005D004D003D06D
:1007230002D001D000D0D0D082D083D0F0D0E0323C
:040833008C088D0997
:100837007E007C2B7D331204F2E47B0CFAF9F8126C
:1008470004608F0D8E0C8D0B8C0AC3E49FFFE49E12
:10085700F5438F46AE08AF09EE3395E0FDFCE47B28
:100867000BFAF9F81203D5E47B0CFAF9F8120460D5
:100877008F118E108D0F8C0EC3E49FFFE49EF544FD
:100887008F4775891185438C85468A85448D8547B1
:0D0897008BD2A9D28CD2ABD28ED2BBD2AF05
:0108A4002231
:04000E004387012201
:100D3900200D03120EA9120D57E4F552D215D2A5B2
:0E0D4900C217F54AF524F5487F14FE020D90FE
:100D7400120E9BE54C700D120E79AF3AAE39120586
:0C0D8400DF120ADCE4F552054AC20D2221
:10073F00020C41E493A3F8E493A34003F68001F283
:10074F0008DFF48029E493A3F85407240CC8C333BB
:10075F00C4540F4420C8834004F456800146F6DF8A
:10076F00E4800B010204081020408090051FE47EF6
:10077F00019360BCA3FF543F30E509541FFEE4937F
:10078F00A360010ECF54C025E060A840B8E493A346
:10079F00FAE493A3F8E493A3C8C582C8CAC583CA71
:1007AF00F0A3C8C582C8CAC583CADFE9DEE780BE29
:0105DE00001C
:1003D500E88FF0A4CC8BF0A42CFCE98EF0A42CFCC7
:1003E5008AF0EDA42CFCEA8EF0A4CDA8F08BF0A445
:1003F5002DCC3825F0FDE98FF0A42CCD35F0FCEBA4
:100405008EF0A4FEA9F0EB8FF0A4CFC5F02ECD3968
:0F041500FEE43CFCEAA42DCE35F0FDE43CFC22D5
:1004240075F008758200EF2FFFEE33FECD33CDCC8F
:1004340033CCC58233C5829BED9AEC99E582984012
:100444000CF582EE9BFEED9AFDEC99FC0FD5F0D6EF
:10045400E4CEFBE4CDFAE4CCF9A88222B800C1B919
:100464000059BA002DEC8BF084CFCECDFCE5F0CB57
:10047400F97818EF2FFFEE33FEED33FDEC33FCEB90
:1004840033FB10D703994004EB99FB0FD8E5E4F94B
:10049400FA227818EF2FFFEE33FEED33FDEC33FC38
:1004A400C933C910D7059BE99A4007EC9BFCE99A2C
:1004B400F90FD8E0E4C9FAE4CCFB2275F010EF2F71
:1004C400FFEE33FEED33FDCC33CCC833C810D70771
:1004D4009BEC9AE899400AED9BFDEC9AFCE899F8AC
:0E04E4000FD5F0DAE4CDFBE4CCFAE4C8F9223F
:1004F200EC8EF0A4CCC5F0CCCDF8EFA4CEC5F02D97
:10050200FDE43CFCE8A42EC8C5F03DFDE43CFCEF54
:0D051200A4FFE5F028FEE43DFDE43CFC22E2
:00000001FF
