:03000000020346B2
:0C034600787FE4F6D8FD75813602038D47
:1003D200E4FAEF6405703343F620C2F8C2F9D2FAA8
:1003E20043E180C2FCD2FBADF8EDC413135403FD0C
:1003F200AFE2AB07EB7E007802C333CE33CED8F93F
:100402007C002DFBEC3EAF03FE22EF64067034430A
:10041200F640D2F8C2F9D2FA43E180C2FCD2FBAD77
:10042200F8EDC413135403FDAFE27A00AB07EB7E81
:10043200007802C333CE33CED8F97C002DFBEC3EDC
:03044200FEAF0307
:010445002294
:1007480075DCC075330075341DE533F5D1E534F536
:02075800D922A4
:1005B500EF1460191460251460312403703B753302
:1005C5000075340DE533F5D2E534F5DA22753301DE
:1005D500753400E533F5D3E534F5DB227533007565
:1005E5003480E533F5D5E534F5DD22753300753412
:0A05F50040E533F5D6E534F5DE22CB
:08000300E4FF1205B5020748F5
:020641008F2206
:10064300C2A07F287E0012069FD2A07F287E0012C0
:10065300069FE4F523E523C395225016D2A17F5EBE
:100663007E011206BFC2A17F5E7E011206BF052373
:0206730080E322
:010675002262
:10071700C294C2A1C2A07FE87E031206BFD2A07F07
:09072700E87E031206BFD2942201
:10067600D2947F051206417F967E001206FC7F0605
:100686001206417F507E001206FC7F071206417F4C
:09069600787E001206FCC29422D9
:10075A00D2947F041206417FB47E001206FCC29432
:01076A00226C
:10076B00D2947F081206417FB47E001206FCC2941D
:01077B00225B
:10077C00D2947F091206417F787E001206FCC29447
:01078C00224A
:10078D00D2947F021206417F787E001206FCC2943D
:01079D002239
:1006DF00D2947F021206417F507E001206FC7F03E8
:0D06EF001206417F507E001206FCC29422CC
:06056A0002350000C1890A
:10029F001207177D647C007F32120446120003D2CE
:1002AF00A4D290C2947F061203D28E358F36D20518
:1002BF00E4F508F509C202C2A7300219C3E5099493
:1002CF0002E5089400500E12067612000E0509E59D
:1002DF00097002050830080812075A12000EC208EA
:1002EF0030040812076B12000EC2043007337F066A
:1002FF001203D28E358F36C207300912D3E53694EA
:10030F005AE53594035007C20912077C8013200960
:10031F0010C3E5369477E53594034005D2091207EB
:10032F008D300609C293120513D293C2063001898C
:07033F001206DFC2018082FB
:1006FC00EF1FAA0670011E4A60107C137D88ED1D49
:0A070C00AA0470011C4A60E880F4A2
:0107160022C0
:10073000E4FDFCC3ED9FEC9E500DE4FB0BBB17FCEE
:070740000DBD00010C80EC6F
:01074700228F
:10069F00E4FDFCC3ED9FEC9E5015E4FBFA0BBB0091
:0F06AF00010ABA02F8BB58F50DBD00010C80E43A
:0106BE002219
:1006BF00E4FDFCC3ED9FEC9E5015E4FBFA0BBB0071
:0F06CF00010AEB64024A70F50DBD00010C80E4D6
:0106DE0022F9
:09057000072C000000000000004F
:10051300D2A7752CC8752DE0752EC11205FFE4F521
:1005230022E4F523742C2522F8E630E706C2907FF7
:10053300788004C2907F507E00120730D290742CD2
:100543002522F8C000E625E0D000F67F327E0012B7
:1005530007300523E523C3940840C90522E522C3D8
:06056300940340BDC2A795
:01056900226F
:1005FF007526AAE4F525E4F524E526C2907F507E02
:10060F0000120730D290E52625E0F5267F967E0072
:10061F001207300524E524C3940840DD7526AA7F10
:10062F00507E001207300525E525C3940140C7D23F
:01063F00902A
:010640002297
:0C000E00C2A47F0A7E001206FCD2A422CD
:10057900C104010C00C108011E00C10202080000EB
:10058900C106C105C107C101021A0000010A00071D
:100599000D00000000000000C103011400010B0060
:0B05A900011500C180011C00011D00B5
:03000B000204B834
:1004B800C0E0C0D085168C85188A051BE51B700224
:1004C800051AC3943CE51A94004018D20730050D6C
:1004D800050AD206E50A94044003750A05751A0050
:1004E800751B00C3E5099402E50894004018050946
:1004F800E50970020508B4080DE508B40708750891
:0B05080000750900C202D0D0D0E03224
:03001B0002016877
:10016800C0E0C0F0C083C082C0D075D000C000C05D
:1001780001C002C003C004C005C006C00785178DB2
:1001880085198B20910E051DC200E51D6450705421
:10019800F51D805020003CD200E51DD39423401566
:1001A800E51DD39432500EE50B25E0F50B530BFEFD
:1001B8000515751C00E51DD394324010E50B25E0AC
:1001C800F50B430B010515751C008002051C751DF8
:1001D800008011051CE51CC3943C4008751500D22D
:1001E80000751400E51564087032F515740D2514B2
:1001F800F8A60BE514700AE50DB4C805751401805E
:100208001BE514B4010AE50EB4E005751402800C70
:10021800E514B40204D203800075140030035DC2F3
:1002280003C293E50F243D601A146023146034144C
:10023800604824057046750A00750800750900C2F3
:10024800028005750A00D202751E00C208800D756D
:100258000A00D208750800750900C202750C00C2B0
:10026800048012750A00D204750800750900C202DC
:10027800751E00C20812000E8002D201D007D006F7
:10028800D005D004D003D002D001D000D0D0D08285
:07029800D083D0F0D0E0326A
:040446008C228D2354
:10044A007E007C347DBC12013BE47B0CFAF9F81285
:10045A0000A98F278E268D258C24C3E49FFFE49E56
:10046A00F5168F18AE22AF23EE3395E0FDFCE47B40
:10047A000DFAF9F812001EE47B0CFAF9F81200A939
:10048A008F2B8E2A8D298C28C3E49FFFE49EF517B3
:10049A008F1975891185168C85188A85178D851986
:0D04AA008BD2A9D28CD2ABD28ED2BBD2AFF6
:0104B7002222
:1003520002029FE493A3F8E493A34003F68001F220
:1003620008DFF48029E493A3F85407240CC8C333AC
:10037200C4540F4420C8834004F456800146F6DF7B
:10038200E4800B010204081020408090056AE47E9C
:10039200019360BCA3FF543F30E509541FFEE49370
:1003A200A360010ECF54C025E060A840B8E493A337
:1003B200FAE493A3F8E493A3C8C582C8CAC583CA62
:1003C200F0A3C8C582C8CAC583CADFE9DEE780BE1A
:0105B4000046
:10001E00E88FF0A4CC8BF0A42CFCE98EF0A42CFC81
:10002E008AF0EDA42CFCEA8EF0A4CDA8F08BF0A4FF
:10003E002DCC3825F0FDE98FF0A42CCD35F0FCEB5E
:10004E008EF0A4FEA9F0EB8FF0A4CFC5F02ECD3923
:0F005E00FEE43CFCEAA42DCE35F0FDE43CFC2290
:10006D0075F008758200EF2FFFEE33FECD33CDCC4A
:10007D0033CCC58233C5829BED9AEC99E5829840CD
:10008D000CF582EE9BFEED9AFDEC99FC0FD5F0D6AA
:10009D00E4CEFBE4CDFAE4CCF9A88222B800C1B9D4
:1000AD000059BA002DEC8BF084CFCECDFCE5F0CB12
:1000BD00F97818EF2FFFEE33FEED33FDEC33FCEB4B
:1000CD0033FB10D703994004EB99FB0FD8E5E4F906
:1000DD00FA227818EF2FFFEE33FEED33FDEC33FCF3
:1000ED00C933C910D7059BE99A4007EC9BFCE99AE7
:1000FD00F90FD8E0E4C9FAE4CCFB2275F010EF2F2C
:10010D00FFEE33FEED33FDCC33CCC833C810D7072B
:10011D009BEC9AE899400AED9BFDEC9AFCE899F866
:0E012D000FD5F0DAE4CDFBE4CCFAE4C8F922F9
:10013B00EC8EF0A4CCC5F0CCCDF8EFA4CEC5F02D51
:10014B00FDE43CFCE8A42EC8C5F03DFDE43CFCEF0F
:0D015B00A4FFE5F028FEE43DFDE43CFC229D
:00000001FF
